{
  "contractName": "Customers",
  "abi": [
    {
      "constant": true,
      "inputs": [
        {
          "name": "",
          "type": "uint256"
        }
      ],
      "name": "customers",
      "outputs": [
        {
          "name": "",
          "type": "address"
        }
      ],
      "payable": false,
      "stateMutability": "view",
      "type": "function",
      "signature": "0xc0abda2a"
    },
    {
      "anonymous": false,
      "inputs": [
        {
          "indexed": true,
          "name": "buyer",
          "type": "address"
        },
        {
          "indexed": false,
          "name": "tokenId",
          "type": "uint256"
        }
      ],
      "name": "BoughtToken",
      "type": "event",
      "signature": "0x75424253909c2f4460f8a59099700e980f5b484608c4fdd79f600f5162ac88a5"
    },
    {
      "constant": false,
      "inputs": [
        {
          "name": "couponId",
          "type": "uint256"
        },
        {
          "name": "tokenPetName_",
          "type": "string"
        },
        {
          "name": "tokenPetAge_",
          "type": "uint256"
        },
        {
          "name": "tokenPetBreed_",
          "type": "string"
        },
        {
          "name": "tokenPetLocation_",
          "type": "string"
        }
      ],
      "name": "claim",
      "outputs": [
        {
          "name": "",
          "type": "uint256"
        }
      ],
      "payable": true,
      "stateMutability": "payable",
      "type": "function",
      "signature": "0xd1420886"
    },
    {
      "constant": true,
      "inputs": [],
      "name": "getCustomers",
      "outputs": [
        {
          "name": "",
          "type": "address[16]"
        }
      ],
      "payable": false,
      "stateMutability": "view",
      "type": "function",
      "signature": "0xf1ba7127"
    },
    {
      "constant": true,
      "inputs": [
        {
          "name": "_couponId",
          "type": "uint256"
        }
      ],
      "name": "getToken",
      "outputs": [
        {
          "name": "tokenID_",
          "type": "uint256"
        },
        {
          "name": "tokenPetName_",
          "type": "string"
        },
        {
          "name": "tokenPetAge_",
          "type": "uint256"
        },
        {
          "name": "tokenPetBreed_",
          "type": "string"
        },
        {
          "name": "tokenPetLocation_",
          "type": "string"
        }
      ],
      "payable": false,
      "stateMutability": "view",
      "type": "function",
      "signature": "0xe4b50cb8"
    },
    {
      "constant": true,
      "inputs": [
        {
          "name": "tokenId",
          "type": "uint256"
        }
      ],
      "name": "getOwner",
      "outputs": [
        {
          "name": "",
          "type": "address"
        }
      ],
      "payable": false,
      "stateMutability": "view",
      "type": "function",
      "signature": "0xc41a360a"
    }
  ],
  "bytecode": "0x6080604052660aa87bee53800060105534801561001b57600080fd5b50610ae88061002b6000396000f3fe60806040526004361061006d576000357c0100000000000000000000000000000000000000000000000000000000900463ffffffff168063c0abda2a14610072578063c41a360a146100af578063d1420886146100ec578063e4b50cb81461011c578063f1ba71271461015d575b600080fd5b34801561007e57600080fd5b506100996004803603610094919081019061071e565b610188565b6040516100a691906108b5565b60405180910390f35b3480156100bb57600080fd5b506100d660048036036100d1919081019061071e565b6101bd565b6040516100e391906108b5565b60405180910390f35b61010660048036036101019190810190610747565b6101f6565b604051610113919061090c565b60405180910390f35b34801561012857600080fd5b50610143600480360361013e919081019061071e565b610335565b604051610154959493929190610927565b60405180910390f35b34801561016957600080fd5b5061017261056a565b60405161017f91906108d0565b60405180910390f35b60008160108110151561019757fe5b016000915054906101000a900473ffffffffffffffffffffffffffffffffffffffff1681565b600080826010811015156101cd57fe5b0160009054906101000a900473ffffffffffffffffffffffffffffffffffffffff169050919050565b60008086101580156102095750600f8611155b151561024a576040517f08c379a0000000000000000000000000000000000000000000000000000000008152600401610241906108ec565b60405180910390fd5b3360008760108110151561025a57fe5b0160006101000a81548173ffffffffffffffffffffffffffffffffffffffff021916908373ffffffffffffffffffffffffffffffffffffffff160217905550846011600088815260200190815260200160002090805190602001906102c09291906105eb565b50836012600088815260200190815260200160002081905550826013600088815260200190815260200160002090805190602001906103009291906105eb565b50816014600088815260200190815260200160002090805190602001906103289291906105eb565b5085905095945050505050565b600060606000606080859450601160008781526020019081526020016000208054600181600116156101000203166002900480601f0160208091040260200160405190810160405280929190818152602001828054600181600116156101000203166002900480156103e85780601f106103bd576101008083540402835291602001916103e8565b820191906000526020600020905b8154815290600101906020018083116103cb57829003601f168201915b5050505050935060126000878152602001908152602001600020549250601360008781526020019081526020016000208054600181600116156101000203166002900480601f0160208091040260200160405190810160405280929190818152602001828054600181600116156101000203166002900480156104ac5780601f10610481576101008083540402835291602001916104ac565b820191906000526020600020905b81548152906001019060200180831161048f57829003601f168201915b50505050509150601460008781526020019081526020016000208054600181600116156101000203166002900480601f01602080910402602001604051908101604052809291908181526020018280546001816001161561010002031660029004801561055a5780601f1061052f5761010080835404028352916020019161055a565b820191906000526020600020905b81548152906001019060200180831161053d57829003601f168201915b5050505050905091939590929450565b61057261066b565b60006010806020026040519081016040528092919082601080156105e1576020028201915b8160009054906101000a900473ffffffffffffffffffffffffffffffffffffffff1673ffffffffffffffffffffffffffffffffffffffff1681526020019060010190808311610597575b5050505050905090565b828054600181600116156101000203166002900490600052602060002090601f016020900481019282601f1061062c57805160ff191683800117855561065a565b8280016001018555821561065a579182015b8281111561065957825182559160200191906001019061063e565b5b509050610667919061068f565b5090565b61020060405190810160405280601090602082028038833980820191505090505090565b6106b191905b808211156106ad576000816000905550600101610695565b5090565b90565b600082601f83011215156106c757600080fd5b81356106da6106d5826109bc565b61098f565b915080825260208301602083018583830111156106f657600080fd5b610701838284610a5b565b50505092915050565b60006107168235610a51565b905092915050565b60006020828403121561073057600080fd5b600061073e8482850161070a565b91505092915050565b600080600080600060a0868803121561075f57600080fd5b600061076d8882890161070a565b955050602086013567ffffffffffffffff81111561078a57600080fd5b610796888289016106b4565b94505060406107a78882890161070a565b935050606086013567ffffffffffffffff8111156107c457600080fd5b6107d0888289016106b4565b925050608086013567ffffffffffffffff8111156107ed57600080fd5b6107f9888289016106b4565b9150509295509295909350565b61080f81610a15565b82525050565b61081e816109f2565b610827826109e8565b60005b828110156108595761083d858351610806565b61084682610a08565b915060208501945060018101905061082a565b5050505050565b600061086b826109fd565b80845261087f816020860160208601610a6a565b61088881610a9d565b602085010191505092915050565b6000808252602082019050919050565b6108af81610a47565b82525050565b60006020820190506108ca6000830184610806565b92915050565b6000610200820190506108e66000830184610815565b92915050565b6000602082019050818103600083015261090581610896565b9050919050565b600060208201905061092160008301846108a6565b92915050565b600060a08201905061093c60008301886108a6565b818103602083015261094e8187610860565b905061095d60408301866108a6565b818103606083015261096f8185610860565b905081810360808301526109838184610860565b90509695505050505050565b6000604051905081810181811067ffffffffffffffff821117156109b257600080fd5b8060405250919050565b600067ffffffffffffffff8211156109d357600080fd5b601f19601f8301169050602081019050919050565b6000819050919050565b600060109050919050565b600081519050919050565b6000602082019050919050565b6000610a2082610a27565b9050919050565b600073ffffffffffffffffffffffffffffffffffffffff82169050919050565b6000819050919050565b6000819050919050565b82818337600083830152505050565b60005b83811015610a88578082015181840152602081019050610a6d565b83811115610a97576000848401525b50505050565b6000601f19601f830116905091905056fea265627a7a7230582020209641176c5c8e63e53cf692cd1c7308b3222f65209647c37cea1e55093e096c6578706572696d656e74616cf50037",
  "source": "pragma solidity ^0.5.0;\r\npragma experimental ABIEncoderV2;\r\n\r\ncontract Customers {\r\n\r\n\r\n    /*** EVENTS ***/\r\n    /// The event emitted (useable by web3) when a token is purchased\r\n    event BoughtToken(address indexed buyer, uint256 tokenId);\r\n\r\n\r\n    address[16] public customers;\r\n\r\n    /// Price set by contract owner for each token in Wei.\r\n    uint256 tokenPrice = 3000000000000000;\r\n\r\n\r\n    /// The Name of the Pet\r\n    mapping(uint256 => string) tokenPetName;\r\n\r\n    mapping(uint256 => uint) tokenPetAge;\r\n    \r\n    mapping(uint256 => string) tokenPetBreed;\r\n    \r\n    mapping(uint256 => string) tokenPetLocation;\r\n\r\n\r\n\r\n    // Claiming a coupon\r\n    function claim(\r\n        uint couponId, \r\n        string memory tokenPetName_,\r\n        uint tokenPetAge_,\r\n        string memory tokenPetBreed_,\r\n        string memory tokenPetLocation_   \r\n    \r\n    ) public payable returns (uint) {\r\n        require(couponId >= 0 && couponId <= 15, \"\");\r\n\r\n        //Buy adjusting the function to payable then you can require a certain amount of ETH must be spent\r\n        //require(msg.value >= tokenPrice, \"Amount of Ether sent too small\");\r\n        \r\n\r\n        customers[couponId] = msg.sender;\r\n        tokenPetName[couponId] = tokenPetName_;\r\n        tokenPetAge[couponId] = tokenPetAge_;\r\n        tokenPetBreed[couponId] = tokenPetBreed_;\r\n        tokenPetLocation[couponId] = tokenPetLocation_;\r\n\r\n        return couponId;\r\n    }\r\n\r\n\r\n\r\n\r\n\r\n\r\n\r\n    // Retrieving the adopters\r\n    function getCustomers() public view returns (address[16] memory) {\r\n        return customers;\r\n    }\r\n\r\n\r\n    // @notice Returns all the relevant information about a specific token\r\n    // @param _couponId The ID of the token of interest\r\n    function getToken(uint256 _couponId)\r\n        external\r\n        view\r\n        returns (\t\t\r\n        uint tokenID_,\r\n        string memory tokenPetName_,\r\n        uint tokenPetAge_,\r\n        string memory tokenPetBreed_,\r\n        string memory tokenPetLocation_\r\n\r\n    ) {\r\n        // TODO: Add Token Score to the details returned\r\n        tokenID_ = _couponId;\r\n        tokenPetName_ = tokenPetName[_couponId];\r\n        tokenPetAge_ = tokenPetAge[_couponId];\r\n        tokenPetBreed_ = tokenPetBreed[_couponId];\r\n        tokenPetLocation_ = tokenPetLocation[_couponId];\r\n\r\n    }\r\n\r\n\r\n\r\n    function getOwner(uint tokenId) public view returns(address){\r\n        return customers[tokenId];\r\n    } \r\n\r\n}",
  "sourcePath": "C:/Users/Michael/Documents/GitHub/lesson-06/contracts/Customers.sol",
  "compiler": {
    "name": "solc",
    "version": "0.5.0+commit.1d4f565a.Emscripten.clang"
  },
  "schemaVersion": "3.0.0",
  "updatedAt": "2019-02-10T14:49:07.724Z",
  "devdoc": {
    "methods": {}
  },
  "userdoc": {
    "methods": {}
  }
}