{
  "contractName": "Customers",
  "abi": [
    {
      "constant": true,
      "inputs": [
        {
          "name": "",
          "type": "uint256"
        }
      ],
      "name": "customers",
      "outputs": [
        {
          "name": "",
          "type": "address"
        }
      ],
      "payable": false,
      "stateMutability": "view",
      "type": "function"
    },
    {
      "constant": false,
      "inputs": [
        {
          "name": "couponId",
          "type": "uint256"
        }
      ],
      "name": "claim",
      "outputs": [
        {
          "name": "",
          "type": "uint256"
        }
      ],
      "payable": false,
      "stateMutability": "nonpayable",
      "type": "function"
    },
    {
      "constant": true,
      "inputs": [],
      "name": "getCustomers",
      "outputs": [
        {
          "name": "",
          "type": "address[16]"
        }
      ],
      "payable": false,
      "stateMutability": "view",
      "type": "function"
    }
  ],
  "bytecode": "0x608060405234801561001057600080fd5b506102f4806100206000396000f3fe608060405260043610610057576000357c0100000000000000000000000000000000000000000000000000000000900463ffffffff168063379607f51461005c578063c0abda2a146100ab578063f1ba712714610126575b600080fd5b34801561006857600080fd5b506100956004803603602081101561007f57600080fd5b8101908080359060200190929190505050610179565b6040518082815260200191505060405180910390f35b3480156100b757600080fd5b506100e4600480360360208110156100ce57600080fd5b81019080803590602001909291905050506101ee565b604051808273ffffffffffffffffffffffffffffffffffffffff1673ffffffffffffffffffffffffffffffffffffffff16815260200191505060405180910390f35b34801561013257600080fd5b5061013b610223565b6040518082601060200280838360005b8381101561016657808201518184015260208101905061014b565b5050505090500191505060405180910390f35b600080821015801561018c5750600f8211155b151561019757600080fd5b336000836010811015156101a757fe5b0160006101000a81548173ffffffffffffffffffffffffffffffffffffffff021916908373ffffffffffffffffffffffffffffffffffffffff160217905550819050919050565b6000816010811015156101fd57fe5b016000915054906101000a900473ffffffffffffffffffffffffffffffffffffffff1681565b61022b6102a4565b600060108060200260405190810160405280929190826010801561029a576020028201915b8160009054906101000a900473ffffffffffffffffffffffffffffffffffffffff1673ffffffffffffffffffffffffffffffffffffffff1681526020019060010190808311610250575b5050505050905090565b6102006040519081016040528060109060208202803883398082019150509050509056fea165627a7a72305820e12bd15a549abb43cc074767a798135008ad21ad9e9cd6c16626b34d79a277f60029",
  "source": "pragma solidity ^0.5.0;\n\ncontract Customers {\n\n    address[16] public customers;\n\n    // Claiming a coupon\n    function claim(uint couponId) public returns (uint) {\n        require(couponId >= 0 && couponId <= 15);\n\n        customers[couponId] = msg.sender;\n\n        return couponId;\n    }\n\n    // Retrieving the adopters\n    function getCustomers() public view returns (address[16] memory) {\n        return customers;\n    }\n\n}",
  "sourcePath": "/Users/shannonclarke/Documents/dev/work/workshops/lesson-06/contracts/Customers.sol",
  "compiler": {
    "name": "solc",
    "version": "0.5.0+commit.1d4f565a.Emscripten.clang"
  },
  "schemaVersion": "3.0.1",
  "updatedAt": "2019-01-26T19:32:24.368Z",
  "devdoc": {
    "methods": {}
  },
  "userdoc": {
    "methods": {}
  }
}