{
  "contractName": "Customers",
  "abi": [
    {
      "constant": true,
      "inputs": [
        {
          "name": "",
          "type": "uint256"
        }
      ],
      "name": "tokenTypes",
      "outputs": [
        {
          "name": "",
          "type": "bytes32"
        }
      ],
      "payable": false,
      "stateMutability": "view",
      "type": "function",
      "signature": "0x33f6832a"
    },
    {
      "constant": true,
      "inputs": [
        {
          "name": "",
          "type": "uint256"
        }
      ],
      "name": "customers",
      "outputs": [
        {
          "name": "",
          "type": "address"
        }
      ],
      "payable": false,
      "stateMutability": "view",
      "type": "function",
      "signature": "0xc0abda2a"
    },
    {
      "constant": false,
      "inputs": [
        {
          "name": "couponId",
          "type": "uint256"
        }
      ],
      "name": "claim",
      "outputs": [
        {
          "name": "",
          "type": "uint256"
        }
      ],
      "payable": true,
      "stateMutability": "payable",
      "type": "function",
      "signature": "0x379607f5"
    },
    {
      "constant": true,
      "inputs": [],
      "name": "getTypes",
      "outputs": [
        {
          "name": "",
          "type": "bytes32[16]"
        }
      ],
      "payable": false,
      "stateMutability": "view",
      "type": "function",
      "signature": "0xb4579d60"
    },
    {
      "constant": true,
      "inputs": [],
      "name": "getCustomers",
      "outputs": [
        {
          "name": "",
          "type": "address[16]"
        }
      ],
      "payable": false,
      "stateMutability": "view",
      "type": "function",
      "signature": "0xf1ba7127"
    },
    {
      "constant": true,
      "inputs": [
        {
          "name": "tokenId",
          "type": "uint256"
        }
      ],
      "name": "getOwner",
      "outputs": [
        {
          "name": "",
          "type": "address"
        }
      ],
      "payable": false,
      "stateMutability": "view",
      "type": "function",
      "signature": "0xc41a360a"
    }
  ],
  "bytecode": "0x6080604052660aa87bee53800060205534801561001b57600080fd5b506105958061002b6000396000f3fe608060405260043610610078576000357c0100000000000000000000000000000000000000000000000000000000900463ffffffff16806333f6832a1461007d578063379607f5146100cc578063b4579d601461010e578063c0abda2a14610161578063c41a360a146101dc578063f1ba712714610257575b600080fd5b34801561008957600080fd5b506100b6600480360360208110156100a057600080fd5b81019080803590602001909291905050506102aa565b6040518082815260200191505060405180910390f35b6100f8600480360360208110156100e257600080fd5b81019080803590602001909291905050506102c4565b6040518082815260200191505060405180910390f35b34801561011a57600080fd5b506101236103e8565b6040518082601060200280838360005b8381101561014e578082015181840152602081019050610133565b5050505090500191505060405180910390f35b34801561016d57600080fd5b5061019a6004803603602081101561018457600080fd5b8101908080359060200190929190505050610432565b604051808273ffffffffffffffffffffffffffffffffffffffff1673ffffffffffffffffffffffffffffffffffffffff16815260200191505060405180910390f35b3480156101e857600080fd5b50610215600480360360208110156101ff57600080fd5b8101908080359060200190929190505050610467565b604051808273ffffffffffffffffffffffffffffffffffffffff1673ffffffffffffffffffffffffffffffffffffffff16815260200191505060405180910390f35b34801561026357600080fd5b5061026c6104a0565b6040518082601060200280838360005b8381101561029757808201518184015260208101905061027c565b5050505090500191505060405180910390f35b6010816010811015156102b957fe5b016000915090505481565b60008082101580156102d75750600f8211155b15156102e257600080fd5b602054341015151561035c576040517f08c379a000000000000000000000000000000000000000000000000000000000815260040180806020018281038252601e8152602001807f416d6f756e74206f662045746865722073656e7420746f6f20736d616c6c000081525060200191505060405180910390fd5b3360008360108110151561036c57fe5b0160006101000a81548173ffffffffffffffffffffffffffffffffffffffff021916908373ffffffffffffffffffffffffffffffffffffffff1602179055507f536f6d657468696e6700000000000000000000000000000000000000000000006010836010811015156103db57fe5b0181905550819050919050565b6103f0610521565b60108080602002604051908101604052809291908260108015610428576020028201915b815481526020019060010190808311610414575b5050505050905090565b60008160108110151561044157fe5b016000915054906101000a900473ffffffffffffffffffffffffffffffffffffffff1681565b6000808260108110151561047757fe5b0160009054906101000a900473ffffffffffffffffffffffffffffffffffffffff169050919050565b6104a8610545565b6000601080602002604051908101604052809291908260108015610517576020028201915b8160009054906101000a900473ffffffffffffffffffffffffffffffffffffffff1673ffffffffffffffffffffffffffffffffffffffff16815260200190600101908083116104cd575b5050505050905090565b61020060405190810160405280601090602082028038833980820191505090505090565b6102006040519081016040528060109060208202803883398082019150509050509056fea165627a7a72305820314d4b5191636e44bdab05f4668f1a776d219fa9b6e4478471407c26e3c39d0b0029",
  "source": "pragma solidity ^0.5.0;\n// pragma experimental ABIEncoderV2;\n\ncontract Customers {\n\n    //So if I use mappings, I can define each token by its index\n    //So in 'customers' mapping I can store who owns the token\n    //In 'tokentypes' mapping I can store the type of token\n\n    address[16] public customers; //This is an array of addresses for storing owners of tokens\n    bytes32[16] public tokenTypes; //This is an array for storing the token types\n\n    uint256 tokenPrice = 3000000000000000;\n\n    //for a token of index/id  0\n    // customers[0] - 0x......\n    // tokenTypes[0] - \"sword of omens\"\n\n    //Structure of each token\n    //couponId -\n    //tokenType - \n    \n    //address is 0x11111,etc\n\n    // Claiming a coupon\n    function claim(uint couponId) public payable returns (uint) {\n        require(couponId >= 0 && couponId <= 15);\n        //Buy adjusting the function to payable then you can require a certain amount of ETH must be spent\n        require(msg.value >= tokenPrice, \"Amount of Ether sent too small\");\n        \n        customers[couponId] = msg.sender;\n        //msg.sender is the address of whoever initiated the transaction\n        tokenTypes[couponId] = bytes32(\"Something\");\n\n        return couponId;\n    }\n\n    function getTypes() public view returns (bytes32[16] memory){\n        return tokenTypes;\n    }\n\n    // Retrieving the adopters\n    function getCustomers() public view returns (address[16] memory) {\n        return customers;\n    }\n\n    function getOwner(uint tokenId) public view returns(address){\n        return customers[tokenId];\n    } \n\n}",
  "sourcePath": "/Users/shannonclarke/Documents/dev/work/workshops/lesson-06/contracts/Customers.sol",
  "compiler": {
    "name": "solc",
    "version": "0.5.0+commit.1d4f565a.Emscripten.clang"
  },
  "schemaVersion": "3.0.1",
  "updatedAt": "2019-02-09T19:50:05.729Z",
  "devdoc": {
    "methods": {}
  },
  "userdoc": {
    "methods": {}
  }
}