{
  "contractName": "Customers",
  "abi": [
    {
      "constant": true,
      "inputs": [
        {
          "name": "",
          "type": "uint256"
        }
      ],
      "name": "tokenTypes",
      "outputs": [
        {
          "name": "",
          "type": "string"
        }
      ],
      "payable": false,
      "stateMutability": "view",
      "type": "function",
      "signature": "0x33f6832a"
    },
    {
      "constant": true,
      "inputs": [
        {
          "name": "",
          "type": "uint256"
        }
      ],
      "name": "customers",
      "outputs": [
        {
          "name": "",
          "type": "address"
        }
      ],
      "payable": false,
      "stateMutability": "view",
      "type": "function",
      "signature": "0xc0abda2a"
    },
    {
      "constant": false,
      "inputs": [
        {
          "name": "couponId",
          "type": "uint256"
        }
      ],
      "name": "claim",
      "outputs": [
        {
          "name": "",
          "type": "uint256"
        }
      ],
      "payable": true,
      "stateMutability": "payable",
      "type": "function",
      "signature": "0x379607f5"
    },
    {
      "constant": true,
      "inputs": [],
      "name": "getTypes",
      "outputs": [
        {
          "name": "",
          "type": "string[16]"
        }
      ],
      "payable": false,
      "stateMutability": "view",
      "type": "function",
      "signature": "0xb4579d60"
    },
    {
      "constant": true,
      "inputs": [],
      "name": "getCustomers",
      "outputs": [
        {
          "name": "",
          "type": "address[16]"
        }
      ],
      "payable": false,
      "stateMutability": "view",
      "type": "function",
      "signature": "0xf1ba7127"
    },
    {
      "constant": true,
      "inputs": [
        {
          "name": "tokenId",
          "type": "uint256"
        }
      ],
      "name": "getOwner",
      "outputs": [
        {
          "name": "",
          "type": "address"
        }
      ],
      "payable": false,
      "stateMutability": "view",
      "type": "function",
      "signature": "0xc41a360a"
    }
  ],
  "bytecode": "0x6080604052660aa87bee53800060205534801561001b57600080fd5b506109808061002b6000396000f3fe608060405260043610610078576000357c0100000000000000000000000000000000000000000000000000000000900463ffffffff16806333f6832a1461007d578063379607f5146100ba578063b4579d60146100ea578063c0abda2a14610115578063c41a360a14610152578063f1ba71271461018f575b600080fd5b34801561008957600080fd5b506100a4600480360361009f9190810190610653565b6101ba565b6040516100b19190610810565b60405180910390f35b6100d460048036036100cf9190810190610653565b61026c565b6040516100e19190610852565b60405180910390f35b3480156100f657600080fd5b506100ff610382565b60405161010c91906107ee565b60405180910390f35b34801561012157600080fd5b5061013c60048036036101379190810190610653565b61045e565b60405161014991906107b7565b60405180910390f35b34801561015e57600080fd5b5061017960048036036101749190810190610653565b610493565b60405161018691906107b7565b60405180910390f35b34801561019b57600080fd5b506101a46104cc565b6040516101b191906107d2565b60405180910390f35b6010816010811015156101c957fe5b016000915090508054600181600116156101000203166002900480601f0160208091040260200160405190810160405280929190818152602001828054600181600116156101000203166002900480156102645780601f1061023957610100808354040283529160200191610264565b820191906000526020600020905b81548152906001019060200180831161024757829003601f168201915b505050505081565b600080821015801561027f5750600f8211155b151561028a57600080fd5b60205434101515156102d1576040517f08c379a00000000000000000000000000000000000000000000000000000000081526004016102c890610832565b60405180910390fd5b336000836010811015156102e157fe5b0160006101000a81548173ffffffffffffffffffffffffffffffffffffffff021916908373ffffffffffffffffffffffffffffffffffffffff1602179055506040805190810160405280600981526020017f536f6d657468696e67000000000000000000000000000000000000000000000081525060108360108110151561036557fe5b01908051906020019061037992919061054d565b50819050919050565b61038a6105cd565b60108080602002604051908101604052809291906000905b82821015610455578382018054600181600116156101000203166002900480601f0160208091040260200160405190810160405280929190818152602001828054600181600116156101000203166002900480156104415780601f1061041657610100808354040283529160200191610441565b820191906000526020600020905b81548152906001019060200180831161042457829003601f168201915b5050505050815260200190600101906103a2565b50505050905090565b60008160108110151561046d57fe5b016000915054906101000a900473ffffffffffffffffffffffffffffffffffffffff1681565b600080826010811015156104a357fe5b0160009054906101000a900473ffffffffffffffffffffffffffffffffffffffff169050919050565b6104d46105f6565b6000601080602002604051908101604052809291908260108015610543576020028201915b8160009054906101000a900473ffffffffffffffffffffffffffffffffffffffff1673ffffffffffffffffffffffffffffffffffffffff16815260200190600101908083116104f9575b5050505050905090565b828054600181600116156101000203166002900490600052602060002090601f016020900481019282601f1061058e57805160ff19168380011785556105bc565b828001600101855582156105bc579182015b828111156105bb5782518255916020019190600101906105a0565b5b5090506105c9919061061a565b5090565b610200604051908101604052806010905b60608152602001906001900390816105de5790505090565b61020060405190810160405280601090602082028038833980820191505090505090565b61063c91905b80821115610638576000816000905550600101610620565b5090565b90565b600061064b82356108f8565b905092915050565b60006020828403121561066557600080fd5b60006106738482850161063f565b91505092915050565b610685816108bc565b82525050565b61069481610881565b61069d8261086d565b60005b828110156106cf576106b385835161067c565b6106bc826108a2565b91506020850194506001810190506106a0565b5050505050565b60006106e18261088c565b836020820285016106f185610877565b60005b8481101561072a57838303885261070c83835161073b565b9250610717826108af565b91506020880197506001810190506106f4565b508196508694505050505092915050565b600061074682610897565b80845261075a816020860160208601610902565b61076381610935565b602085010191505092915050565b6000601e82527f416d6f756e74206f662045746865722073656e7420746f6f20736d616c6c00006020830152604082019050919050565b6107b1816108ee565b82525050565b60006020820190506107cc600083018461067c565b92915050565b6000610200820190506107e8600083018461068b565b92915050565b6000602082019050818103600083015261080881846106d6565b905092915050565b6000602082019050818103600083015261082a818461073b565b905092915050565b6000602082019050818103600083015261084b81610771565b9050919050565b600060208201905061086760008301846107a8565b92915050565b6000819050919050565b6000819050919050565b600060109050919050565b600060109050919050565b600081519050919050565b6000602082019050919050565b6000602082019050919050565b60006108c7826108ce565b9050919050565b600073ffffffffffffffffffffffffffffffffffffffff82169050919050565b6000819050919050565b6000819050919050565b60005b83811015610920578082015181840152602081019050610905565b8381111561092f576000848401525b50505050565b6000601f19601f830116905091905056fea265627a7a723058202a5a04f146b4de4e269802c04091482d1fefd123432b68947570b6c2f05bddac6c6578706572696d656e74616cf50037",
  "source": "pragma solidity ^0.5.0;\npragma experimental ABIEncoderV2;\n\ncontract Customers {\n\n    //So if I use mappings, I can define each token by its index\n    //So in 'customers' mapping I can store who owns the token\n    //In 'tokentypes' mapping I can store the type of token\n\n    address[16] public customers; //This is an array of addresses for storing owners of tokens\n    string[16] public tokenTypes; //This is an array for storing the token types\n\n    uint256 tokenPrice = 3000000000000000;\n\n    //for a token of index/id  0\n    // customers[0] - 0x......\n    // tokenTypes[0] - \"sword of omens\"\n\n    //Structure of each token\n    //couponId -\n    //tokenType - \n    \n    //address is 0x11111,etc\n\n    // Claiming a coupon\n    function claim(uint couponId) public payable returns (uint) {\n        require(couponId >= 0 && couponId <= 15);\n        require(msg.value >= tokenPrice, \"Amount of Ether sent too small\");\n        \n        customers[couponId] = msg.sender;\n        //msg.sender is the address of whoever initiated the transaction\n        tokenTypes[couponId] = \"Something\";\n\n        return couponId;\n    }\n\n    function getTypes() public view returns (string[16] memory){\n        return tokenTypes;\n    }\n\n    // Retrieving the adopters\n    function getCustomers() public view returns (address[16] memory) {\n        return customers;\n    }\n\n    function getOwner(uint tokenId) public view returns(address){\n        return customers[tokenId];\n    } \n\n}",
  "sourcePath": "/Users/shannonclarke/Documents/dev/work/workshops/lesson-06/contracts/Customers.sol",
  "compiler": {
    "name": "solc",
    "version": "0.5.0+commit.1d4f565a.Emscripten.clang"
  },
  "schemaVersion": "3.0.1",
  "updatedAt": "2019-02-09T19:15:57.822Z",
  "devdoc": {
    "methods": {}
  },
  "userdoc": {
    "methods": {}
  }
}